{
  "contractName": "Vote",
  "abi": [
    {
      "inputs": [],
      "name": "candidate1",
      "outputs": [
        {
          "internalType": "uint256",
          "name": "",
          "type": "uint256"
        }
      ],
      "stateMutability": "view",
      "type": "function",
      "constant": true
    },
    {
      "inputs": [],
      "name": "candidate2",
      "outputs": [
        {
          "internalType": "uint256",
          "name": "",
          "type": "uint256"
        }
      ],
      "stateMutability": "view",
      "type": "function",
      "constant": true
    },
    {
      "inputs": [
        {
          "internalType": "address",
          "name": "",
          "type": "address"
        }
      ],
      "name": "voted",
      "outputs": [
        {
          "internalType": "bool",
          "name": "",
          "type": "bool"
        }
      ],
      "stateMutability": "view",
      "type": "function",
      "constant": true
    },
    {
      "inputs": [
        {
          "internalType": "uint256",
          "name": "candidate",
          "type": "uint256"
        }
      ],
      "name": "castVote",
      "outputs": [],
      "stateMutability": "nonpayable",
      "type": "function"
    }
  ],
  "bytecode": "0x608060405234801561001057600080fd5b5061040b806100206000396000f3fe608060405234801561001057600080fd5b506004361061004c5760003560e01c806301243fce146100515780633eb76b9c1461006f5780635b57014c1461008b578063aec2ccae146100a9575b600080fd5b6100596100d9565b6040516100669190610224565b60405180910390f35b61008960048036038101906100849190610270565b6100df565b005b6100936101e5565b6040516100a09190610224565b60405180910390f35b6100c360048036038101906100be91906102fb565b6101eb565b6040516100d09190610343565b60405180910390f35b60005481565b600260003373ffffffffffffffffffffffffffffffffffffffff1673ffffffffffffffffffffffffffffffffffffffff16815260200190815260200160002060009054906101000a900460ff16158015610144575060018114806101435750600281145b5b61014d57600080fd5b60018103610171576000808154809291906101679061038d565b919050555061018a565b600160008154809291906101849061038d565b91905055505b6001600260003373ffffffffffffffffffffffffffffffffffffffff1673ffffffffffffffffffffffffffffffffffffffff16815260200190815260200160002060006101000a81548160ff02191690831515021790555050565b60015481565b60026020528060005260406000206000915054906101000a900460ff1681565b6000819050919050565b61021e8161020b565b82525050565b60006020820190506102396000830184610215565b92915050565b600080fd5b61024d8161020b565b811461025857600080fd5b50565b60008135905061026a81610244565b92915050565b6000602082840312156102865761028561023f565b5b60006102948482850161025b565b91505092915050565b600073ffffffffffffffffffffffffffffffffffffffff82169050919050565b60006102c88261029d565b9050919050565b6102d8816102bd565b81146102e357600080fd5b50565b6000813590506102f5816102cf565b92915050565b6000602082840312156103115761031061023f565b5b600061031f848285016102e6565b91505092915050565b60008115159050919050565b61033d81610328565b82525050565b60006020820190506103586000830184610334565b92915050565b7f4e487b7100000000000000000000000000000000000000000000000000000000600052601160045260246000fd5b60006103988261020b565b91507fffffffffffffffffffffffffffffffffffffffffffffffffffffffffffffffff82036103ca576103c961035e565b5b60018201905091905056fea2646970667358221220ea6873165fbca71b35a23f8f9f42b66f0fc6a19305d1b51a6b7348b97f917a5464736f6c63430008110033",
  "immutableReferences": {},
  "source": "// SPDX-License-Identifier: MIT\npragma solidity >=0.4.22 <0.9.0;\n\ncontract Vote {\n    uint public candidate1;\n    uint public candidate2;\n\n    mapping(address => bool) public voted;\n\n    function castVote(uint candidate) public {\n        require(!voted[msg.sender] && (candidate == 1 || candidate == 2));\n        if (candidate == 1) {\n            candidate1++;\n        } else {\n            candidate2++;\n        }\n\n        voted[msg.sender] = true;\n    }\n}",
  "sourcePath": "C:\\repos\\nethereum\\Vote\\contracts\\Vote.sol",
  "compiler": {
    "name": "solc",
    "version": "0.8.17+commit.8df45f5f.Emscripten.clang"
  },
  "schemaVersion": "3.4.16",
  "updatedAt": "2023-09-20T13:41:43.712Z",
  "networkType": "ethereum",
  "devdoc": {
    "kind": "dev",
    "methods": {},
    "version": 1
  },
  "userdoc": {
    "kind": "user",
    "methods": {},
    "version": 1
  }
}